S01700004763634170706C69636174696F6E392E7372656353
S11300000C9434000C943E000C943E000C943E007E
S11300100C943E000C943E000C943E000C943E0064
S11300200C943E000C943E000C943E000C943E0054
S11300300C943E000C943E000C943E000C943E0044
S11300400C943E000C943E000C943E000C943E0034
S11300500C943E000C943E000C943E000C943E0024
S11300600C943E000C943E0011241FBECFEFD8E048
S1130070DEBFCDBF0E9456000C9464000C940000B7
S1130080569A239A84B1836084B984B1846184B913
S1130090089593E894BD81E085BD9093B00080936A
S11300A0B1000895289A08952C9A08950E9440005A
S11300B00E9449000E9454000E94520088EC8093E0
S10F00C0B30082E387BDFFCFF894FFCFAC
S9030000FC
